{
  "_format": "hh-sol-artifact-1",
  "contractName": "GriefingLock",
  "sourceName": "contracts/GriefingLock.sol",
  "abi": [
    {
      "inputs": [
        {
          "internalType": "address",
          "name": "receiver",
          "type": "address"
        },
        {
          "internalType": "uint256",
          "name": "timeGap",
          "type": "uint256"
        }
      ],
      "stateMutability": "nonpayable",
      "type": "constructor"
    },
    {
      "anonymous": false,
      "inputs": [
        {
          "indexed": true,
          "internalType": "address",
          "name": "sender",
          "type": "address"
        },
        {
          "indexed": true,
          "internalType": "address",
          "name": "receiver",
          "type": "address"
        },
        {
          "indexed": false,
          "internalType": "uint256",
          "name": "unlockTime",
          "type": "uint256"
        }
      ],
      "name": "GriefingLockCreated",
      "type": "event"
    },
    {
      "anonymous": false,
      "inputs": [
        {
          "indexed": true,
          "internalType": "address",
          "name": "sender",
          "type": "address"
        },
        {
          "indexed": true,
          "internalType": "address",
          "name": "receiver",
          "type": "address"
        },
        {
          "indexed": false,
          "internalType": "uint256",
          "name": "amount",
          "type": "uint256"
        },
        {
          "indexed": false,
          "internalType": "uint256",
          "name": "unlockTime",
          "type": "uint256"
        }
      ],
      "name": "GriefingLocked",
      "type": "event"
    },
    {
      "anonymous": false,
      "inputs": [
        {
          "indexed": true,
          "internalType": "address",
          "name": "sender",
          "type": "address"
        },
        {
          "indexed": false,
          "internalType": "uint256",
          "name": "amount",
          "type": "uint256"
        }
      ],
      "name": "GriefingRefunded",
      "type": "event"
    },
    {
      "anonymous": false,
      "inputs": [
        {
          "indexed": true,
          "internalType": "address",
          "name": "receiver",
          "type": "address"
        },
        {
          "indexed": false,
          "internalType": "uint256",
          "name": "amount",
          "type": "uint256"
        }
      ],
      "name": "GriefingWithdrawn",
      "type": "event"
    },
    {
      "anonymous": false,
      "inputs": [
        {
          "indexed": true,
          "internalType": "address",
          "name": "previousOwner",
          "type": "address"
        },
        {
          "indexed": true,
          "internalType": "address",
          "name": "newOwner",
          "type": "address"
        }
      ],
      "name": "OwnershipTransferred",
      "type": "event"
    },
    {
      "anonymous": false,
      "inputs": [
        {
          "indexed": true,
          "internalType": "address",
          "name": "principalAddress",
          "type": "address"
        },
        {
          "indexed": false,
          "internalType": "uint256",
          "name": "amount",
          "type": "uint256"
        },
        {
          "indexed": false,
          "internalType": "uint256",
          "name": "unlockTime",
          "type": "uint256"
        }
      ],
      "name": "PrincipalLocked",
      "type": "event"
    },
    {
      "inputs": [
        {
          "internalType": "uint256",
          "name": "newTimeGap",
          "type": "uint256"
        }
      ],
      "name": "changeTimeGap",
      "outputs": [],
      "stateMutability": "nonpayable",
      "type": "function"
    },
    {
      "inputs": [],
      "name": "deployPrincipal",
      "outputs": [
        {
          "internalType": "contract PrincipalLock",
          "name": "",
          "type": "address"
        }
      ],
      "stateMutability": "payable",
      "type": "function"
    },
    {
      "inputs": [],
      "name": "depositGriefingTokens",
      "outputs": [],
      "stateMutability": "payable",
      "type": "function"
    },
    {
      "inputs": [],
      "name": "getPrincipalLock",
      "outputs": [
        {
          "internalType": "address",
          "name": "",
          "type": "address"
        }
      ],
      "stateMutability": "view",
      "type": "function"
    },
    {
      "inputs": [],
      "name": "getUnlockTime",
      "outputs": [
        {
          "internalType": "uint256",
          "name": "",
          "type": "uint256"
        }
      ],
      "stateMutability": "view",
      "type": "function"
    },
    {
      "inputs": [],
      "name": "owner",
      "outputs": [
        {
          "internalType": "address",
          "name": "",
          "type": "address"
        }
      ],
      "stateMutability": "view",
      "type": "function"
    },
    {
      "inputs": [],
      "name": "refund",
      "outputs": [
        {
          "internalType": "bool",
          "name": "",
          "type": "bool"
        }
      ],
      "stateMutability": "payable",
      "type": "function"
    },
    {
      "inputs": [],
      "name": "renounceOwnership",
      "outputs": [],
      "stateMutability": "nonpayable",
      "type": "function"
    },
    {
      "inputs": [],
      "name": "setRefund",
      "outputs": [],
      "stateMutability": "nonpayable",
      "type": "function"
    },
    {
      "inputs": [
        {
          "internalType": "address",
          "name": "newOwner",
          "type": "address"
        }
      ],
      "name": "transferOwnership",
      "outputs": [],
      "stateMutability": "nonpayable",
      "type": "function"
    },
    {
      "inputs": [],
      "name": "withdraw",
      "outputs": [
        {
          "internalType": "bool",
          "name": "",
          "type": "bool"
        }
      ],
      "stateMutability": "payable",
      "type": "function"
    }
  ],
  "bytecode": "0x60806040526000600160006101000a81548173ffffffffffffffffffffffffffffffffffffffff021916908373ffffffffffffffffffffffffffffffffffffffff1602179055506000600760006101000a81548160ff0219169083151502179055506000600760016101000a81548160ff0219169083151502179055506000600760026101000a81548160ff021916908315150217905550348015620000a457600080fd5b5060405162003761380380620037618339818101604052810190620000ca9190620006e8565b620000ea620000de620002da60201b60201c565b620002e260201b60201c565b8060b48110156200010760b4620003a660201b62000ced1760201c565b60405160200162000119919062000878565b604051602081830303815290604052906200016c576040517f08c379a00000000000000000000000000000000000000000000000000000000081526004016200016391906200090e565b60405180910390fd5b506200017d6200049660201b60201c565b600260006101000a81548173ffffffffffffffffffffffffffffffffffffffff021916908373ffffffffffffffffffffffffffffffffffffffff16021790555082600360006101000a81548173ffffffffffffffffffffffffffffffffffffffff021916908373ffffffffffffffffffffffffffffffffffffffff160217905550816005819055506200021e42600554620004bf60201b62000dd21760201c565b600681905550600360009054906101000a900473ffffffffffffffffffffffffffffffffffffffff1673ffffffffffffffffffffffffffffffffffffffff16600260009054906101000a900473ffffffffffffffffffffffffffffffffffffffff1673ffffffffffffffffffffffffffffffffffffffff167f96ed12b1a03abfbb13bc9fbfd1558da9ae9a54ad116c4f0d9f57d447fc8e2694600654604051620002c9919062000943565b60405180910390a350505062000a4a565b600033905090565b60008060009054906101000a900473ffffffffffffffffffffffffffffffffffffffff169050816000806101000a81548173ffffffffffffffffffffffffffffffffffffffff021916908373ffffffffffffffffffffffffffffffffffffffff1602179055508173ffffffffffffffffffffffffffffffffffffffff168173ffffffffffffffffffffffffffffffffffffffff167f8be0079c531659141344cd1fd0a4f28419497f9722a3daafe3b4186f6b6457e060405160405180910390a35050565b606060006001620003c284620004d760201b62000dea1760201c565b01905060008167ffffffffffffffff811115620003e457620003e362000960565b5b6040519080825280601f01601f191660200182016040528015620004175781602001600182028036833780820191505090505b509050600082602001820190505b6001156200048b578080600190039150507f3031323334353637383961626364656600000000000000000000000000000000600a86061a8153600a85816200047257620004716200098f565b5b049450600085141562000485576200048b565b62000425565b819350505050919050565b60008060009054906101000a900473ffffffffffffffffffffffffffffffffffffffff16905090565b60008183620004cf9190620009ed565b905092915050565b600080600090507a184f03e93ff9f4daa797ed6e38ed64bf6a1f010000000000000000831062000539577a184f03e93ff9f4daa797ed6e38ed64bf6a1f01000000000000000083816200052f576200052e6200098f565b5b0492506040810190505b6d04ee2d6d415b85acef810000000083106200057a576d04ee2d6d415b85acef8100000000838162000570576200056f6200098f565b5b0492506020810190505b662386f26fc100008310620005ad57662386f26fc100008381620005a357620005a26200098f565b5b0492506010810190505b6305f5e1008310620005da576305f5e1008381620005d057620005cf6200098f565b5b0492506008810190505b612710831062000603576127108381620005f957620005f86200098f565b5b0492506004810190505b606483106200062a576064838162000620576200061f6200098f565b5b0492506002810190505b600a83106200063a576001810190505b80915050919050565b600080fd5b600073ffffffffffffffffffffffffffffffffffffffff82169050919050565b6000620006758262000648565b9050919050565b620006878162000668565b81146200069357600080fd5b50565b600081519050620006a7816200067c565b92915050565b6000819050919050565b620006c281620006ad565b8114620006ce57600080fd5b50565b600081519050620006e281620006b7565b92915050565b6000806040838503121562000702576200070162000643565b5b6000620007128582860162000696565b92505060206200072585828601620006d1565b9150509250929050565b600081905092915050565b7f54696d653a20556e6c6f636b2054696d65206d757374206265206174206c656160008201527f7374200000000000000000000000000000000000000000000000000000000000602082015250565b6000620007986023836200072f565b9150620007a5826200073a565b602382019050919050565b600081519050919050565b60005b83811015620007db578082015181840152602081019050620007be565b83811115620007eb576000848401525b50505050565b6000620007fe82620007b0565b6200080a81856200072f565b93506200081c818560208601620007bb565b80840191505092915050565b7f207365636f6e6473206c61746572000000000000000000000000000000000000600082015250565b600062000860600e836200072f565b91506200086d8262000828565b600e82019050919050565b6000620008858262000789565b9150620008938284620007f1565b9150620008a08262000851565b915081905092915050565b600082825260208201905092915050565b6000601f19601f8301169050919050565b6000620008da82620007b0565b620008e68185620008ab565b9350620008f8818560208601620007bb565b6200090381620008bc565b840191505092915050565b600060208201905081810360008301526200092a8184620008cd565b905092915050565b6200093d81620006ad565b82525050565b60006020820190506200095a600083018462000932565b92915050565b7f4e487b7100000000000000000000000000000000000000000000000000000000600052604160045260246000fd5b7f4e487b7100000000000000000000000000000000000000000000000000000000600052601260045260246000fd5b7f4e487b7100000000000000000000000000000000000000000000000000000000600052601160045260246000fd5b6000620009fa82620006ad565b915062000a0783620006ad565b9250827fffffffffffffffffffffffffffffffffffffffffffffffffffffffffffffffff0382111562000a3f5762000a3e620009be565b5b828201905092915050565b612d078062000a5a6000396000f3fe608060405260043610620000aa5760003560e01c8063743c765c116200006d578063743c765c14620001495780638da5cb5b146200016b5780639c5a416a146200019b5780639ec8f38d14620001b5578063f2fde38b14620001e3578063ff22bb04146200021157620000aa565b80633ccfd60b14620000af578063590e1ae314620000d1578063602bc62b14620000f357806370e0d6ad1462000123578063715018a6146200012f575b600080fd5b620000b962000241565b604051620000c89190620010d2565b60405180910390f35b620000db620004d1565b604051620000ea9190620010d2565b60405180910390f35b3480156200010057600080fd5b506200010b6200076b565b6040516200011a91906200110a565b60405180910390f35b6200012d62000775565b005b3480156200013c57600080fd5b506200014762000839565b005b6200015362000851565b604051620001629190620011b2565b60405180910390f35b3480156200017857600080fd5b506200018362000a23565b604051620001929190620011f4565b60405180910390f35b348015620001a857600080fd5b50620001b362000a4c565b005b348015620001c257600080fd5b50620001e16004803603810190620001db919062001247565b62000b17565b005b348015620001f057600080fd5b506200020f6004803603810190620002099190620012aa565b62000c38565b005b3480156200021e57600080fd5b506200022962000cc3565b604051620002389190620011f4565b60405180910390f35b60003373ffffffffffffffffffffffffffffffffffffffff16600360009054906101000a900473ffffffffffffffffffffffffffffffffffffffff1673ffffffffffffffffffffffffffffffffffffffff1614620002d6576040517f08c379a0000000000000000000000000000000000000000000000000000000008152600401620002cd9062001363565b60405180910390fd5b60001515600760009054906101000a900460ff161515146200032f576040517f08c379a00000000000000000000000000000000000000000000000000000000081526004016200032690620013d5565b60405180910390fd5b60001515600760029054906101000a900460ff1615151462000388576040517f08c379a00000000000000000000000000000000000000000000000000000000081526004016200037f906200146d565b60405180910390fd5b4260065410620003cf576040517f08c379a0000000000000000000000000000000000000000000000000000000008152600401620003c69062001505565b60405180910390fd5b6001600760006101000a81548160ff021916908315150217905550600360009054906101000a900473ffffffffffffffffffffffffffffffffffffffff1673ffffffffffffffffffffffffffffffffffffffff166108fc6004549081150290604051600060405180830381858888f1935050505015801562000455573d6000803e3d6000fd5b50600360009054906101000a900473ffffffffffffffffffffffffffffffffffffffff1673ffffffffffffffffffffffffffffffffffffffff167f6a99259b3de32323741aa9b757db2be45e74f09798afa8ce01211380497ed642600454604051620004c291906200110a565b60405180910390a26001905090565b60003373ffffffffffffffffffffffffffffffffffffffff16600260009054906101000a900473ffffffffffffffffffffffffffffffffffffffff1673ffffffffffffffffffffffffffffffffffffffff161462000566576040517f08c379a00000000000000000000000000000000000000000000000000000000081526004016200055d906200159d565b60405180910390fd5b60001515600760019054906101000a900460ff16151514620005bf576040517f08c379a0000000000000000000000000000000000000000000000000000000008152600401620005b6906200160f565b60405180910390fd5b60001515600760009054906101000a900460ff1615151462000618576040517f08c379a00000000000000000000000000000000000000000000000000000000081526004016200060f90620016a7565b60405180910390fd5b42600654106200065f576040517f08c379a000000000000000000000000000000000000000000000000000000000815260040162000656906200173f565b60405180910390fd5b6200066962000f56565b6001600760016101000a81548160ff021916908315150217905550600260009054906101000a900473ffffffffffffffffffffffffffffffffffffffff1673ffffffffffffffffffffffffffffffffffffffff166108fc6004549081150290604051600060405180830381858888f19350505050158015620006ef573d6000803e3d6000fd5b50600260009054906101000a900473ffffffffffffffffffffffffffffffffffffffff1673ffffffffffffffffffffffffffffffffffffffff167f3dc7f7bca4f1ef3b6ae9cf2e42dad341cee82a807de5d9399a0f5866f39c7c256004546040516200075c91906200110a565b60405180910390a26001905090565b6000600654905090565b6200077f62000f56565b34600481905550600360009054906101000a900473ffffffffffffffffffffffffffffffffffffffff1673ffffffffffffffffffffffffffffffffffffffff16600260009054906101000a900473ffffffffffffffffffffffffffffffffffffffff1673ffffffffffffffffffffffffffffffffffffffff167f3a0f024e95540ff033beb89c1b01e29a440357177aa492ca074b189344c4ab576004546006546040516200082f92919062001761565b60405180910390a3565b6200084362000f56565b6200084f600062000fdb565b565b60006200085d62000f56565b6001600760026101000a81548160ff021916908315150217905550600030600260009054906101000a900473ffffffffffffffffffffffffffffffffffffffff16600360009054906101000a900473ffffffffffffffffffffffffffffffffffffffff1634620008d260065460055462000dd2565b604051620008e090620010a7565b620008f09594939291906200178e565b604051809103906000f0801580156200090d573d6000803e3d6000fd5b50905080600160006101000a81548173ffffffffffffffffffffffffffffffffffffffff021916908373ffffffffffffffffffffffffffffffffffffffff160217905550600160009054906101000a900473ffffffffffffffffffffffffffffffffffffffff1673ffffffffffffffffffffffffffffffffffffffff166108fc349081150290604051600060405180830381858888f19350505050158015620009ba573d6000803e3d6000fd5b508073ffffffffffffffffffffffffffffffffffffffff167fff454d7ef6271ea0d20484701f8a319f0b96883ce07cbebbcb4c739003932d883462000a0460065460055462000dd2565b60405162000a1492919062001761565b60405180910390a28091505090565b60008060009054906101000a900473ffffffffffffffffffffffffffffffffffffffff16905090565b3373ffffffffffffffffffffffffffffffffffffffff16600160009054906101000a900473ffffffffffffffffffffffffffffffffffffffff1673ffffffffffffffffffffffffffffffffffffffff161462000adf576040517f08c379a000000000000000000000000000000000000000000000000000000000815260040162000ad69062001861565b60405180910390fd5b6001600760016101000a81548160ff0219169083151502179055506000600760026101000a81548160ff021916908315150217905550565b62000b2162000f56565b8060b481101562000b3360b462000ced565b60405160200162000b459190620019cc565b6040516020818303038152906040529062000b98576040517f08c379a000000000000000000000000000000000000000000000000000000000815260040162000b8f919062001a51565b60405180910390fd5b50600073ffffffffffffffffffffffffffffffffffffffff16600160009054906101000a900473ffffffffffffffffffffffffffffffffffffffff1673ffffffffffffffffffffffffffffffffffffffff161462000c2d576040517f08c379a000000000000000000000000000000000000000000000000000000000815260040162000c249062001aeb565b60405180910390fd5b816005819055505050565b62000c4262000f56565b600073ffffffffffffffffffffffffffffffffffffffff168173ffffffffffffffffffffffffffffffffffffffff16141562000cb5576040517f08c379a000000000000000000000000000000000000000000000000000000000815260040162000cac9062001b83565b60405180910390fd5b62000cc08162000fdb565b50565b6000600160009054906101000a900473ffffffffffffffffffffffffffffffffffffffff16905090565b60606000600162000cfe8462000dea565b01905060008167ffffffffffffffff81111562000d205762000d1f62001ba5565b5b6040519080825280601f01601f19166020018201604052801562000d535781602001600182028036833780820191505090505b509050600082602001820190505b60011562000dc7578080600190039150507f3031323334353637383961626364656600000000000000000000000000000000600a86061a8153600a858162000dae5762000dad62001bd4565b5b049450600085141562000dc15762000dc7565b62000d61565b819350505050919050565b6000818362000de2919062001c32565b905092915050565b600080600090507a184f03e93ff9f4daa797ed6e38ed64bf6a1f010000000000000000831062000e4c577a184f03e93ff9f4daa797ed6e38ed64bf6a1f010000000000000000838162000e425762000e4162001bd4565b5b0492506040810190505b6d04ee2d6d415b85acef8100000000831062000e8d576d04ee2d6d415b85acef8100000000838162000e835762000e8262001bd4565b5b0492506020810190505b662386f26fc10000831062000ec057662386f26fc10000838162000eb65762000eb562001bd4565b5b0492506010810190505b6305f5e100831062000eed576305f5e100838162000ee35762000ee262001bd4565b5b0492506008810190505b612710831062000f1657612710838162000f0c5762000f0b62001bd4565b5b0492506004810190505b6064831062000f3d576064838162000f335762000f3262001bd4565b5b0492506002810190505b600a831062000f4d576001810190505b80915050919050565b62000f606200109f565b73ffffffffffffffffffffffffffffffffffffffff1662000f8062000a23565b73ffffffffffffffffffffffffffffffffffffffff161462000fd9576040517f08c379a000000000000000000000000000000000000000000000000000000000815260040162000fd09062001cdf565b60405180910390fd5b565b60008060009054906101000a900473ffffffffffffffffffffffffffffffffffffffff169050816000806101000a81548173ffffffffffffffffffffffffffffffffffffffff021916908373ffffffffffffffffffffffffffffffffffffffff1602179055508173ffffffffffffffffffffffffffffffffffffffff168173ffffffffffffffffffffffffffffffffffffffff167f8be0079c531659141344cd1fd0a4f28419497f9722a3daafe3b4186f6b6457e060405160405180910390a35050565b600033905090565b610fd08062001d0283390190565b60008115159050919050565b620010cc81620010b5565b82525050565b6000602082019050620010e96000830184620010c1565b92915050565b6000819050919050565b6200110481620010ef565b82525050565b6000602082019050620011216000830184620010f9565b92915050565b600073ffffffffffffffffffffffffffffffffffffffff82169050919050565b6000819050919050565b6000620011726200116c620011668462001127565b62001147565b62001127565b9050919050565b6000620011868262001151565b9050919050565b60006200119a8262001179565b9050919050565b620011ac816200118d565b82525050565b6000602082019050620011c96000830184620011a1565b92915050565b6000620011dc8262001127565b9050919050565b620011ee81620011cf565b82525050565b60006020820190506200120b6000830184620011e3565b92915050565b600080fd5b6200122181620010ef565b81146200122d57600080fd5b50565b600081359050620012418162001216565b92915050565b60006020828403121562001260576200125f62001211565b5b6000620012708482850162001230565b91505092915050565b6200128481620011cf565b81146200129057600080fd5b50565b600081359050620012a48162001279565b92915050565b600060208284031215620012c357620012c262001211565b5b6000620012d38482850162001293565b91505092915050565b600082825260208201905092915050565b7f5769746864726177616c3a204e6f742053746970756c6174656420526563656960008201527f7665720000000000000000000000000000000000000000000000000000000000602082015250565b60006200134b602383620012dc565b91506200135882620012ed565b604082019050919050565b600060208201905081810360008301526200137e816200133c565b9050919050565b7f5769746864726177616c3a20416c72656164792057697468647261776e000000600082015250565b6000620013bd601d83620012dc565b9150620013ca8262001385565b602082019050919050565b60006020820190508181036000830152620013f081620013ae565b9050919050565b7f5769746864726177616c3a205072696e636970616c204c6f636b20697320646560008201527f706c6f7965642e20436c61696d20796f75722066756e64730000000000000000602082015250565b600062001455603883620012dc565b91506200146282620013f7565b604082019050919050565b60006020820190508181036000830152620014888162001446565b9050919050565b7f5769746864726177616c3a20556e6c6f636b2054696d6520686173207965742060008201527f746f207061737300000000000000000000000000000000000000000000000000602082015250565b6000620014ed602783620012dc565b9150620014fa826200148f565b604082019050919050565b600060208201905081810360008301526200152081620014de565b9050919050565b7f526566756e643a204e6f742053656e6465722c20706c6561736520757365207460008201527f686520636f7272656374206163636f756e740000000000000000000000000000602082015250565b600062001585603283620012dc565b9150620015928262001527565b604082019050919050565b60006020820190508181036000830152620015b88162001576565b9050919050565b7f526566756e643a20416c726561647920526566756e6465640000000000000000600082015250565b6000620015f7601883620012dc565b91506200160482620015bf565b602082019050919050565b600060208201905081810360008301526200162a81620015e8565b9050919050565b7f526566756e643a20596f75206d6179206e6f7420726566756e6420617320612060008201527f7769746864726177616c20686173206265656e2070726f636573736564000000602082015250565b60006200168f603d83620012dc565b91506200169c8262001631565b604082019050919050565b60006020820190508181036000830152620016c28162001680565b9050919050565b7f526566756e643a20506c65617365207761697420666f722074696d656c6f636b60008201527f20746f2070617373000000000000000000000000000000000000000000000000602082015250565b600062001727602883620012dc565b91506200173482620016c9565b604082019050919050565b600060208201905081810360008301526200175a8162001718565b9050919050565b6000604082019050620017786000830185620010f9565b620017876020830184620010f9565b9392505050565b600060a082019050620017a56000830188620011e3565b620017b46020830187620011e3565b620017c36040830186620011e3565b620017d26060830185620010f9565b620017e16080830184620010f9565b9695505050505050565b7f5072696e636970616c204c6f636b20526566756e642053657474696e673a205560008201527f6e617574686f72697a6564204163636573730000000000000000000000000000602082015250565b600062001849603283620012dc565b91506200185682620017eb565b604082019050919050565b600060208201905081810360008301526200187c816200183a565b9050919050565b600081905092915050565b7f54696d653a20556e6c6f636b2054696d65206d757374206265206174206c656160008201527f7374200000000000000000000000000000000000000000000000000000000000602082015250565b6000620018ec60238362001883565b9150620018f9826200188e565b602382019050919050565b600081519050919050565b60005b838110156200192f57808201518184015260208101905062001912565b838111156200193f576000848401525b50505050565b6000620019528262001904565b6200195e818562001883565b9350620019708185602086016200190f565b80840191505092915050565b7f207365636f6e6473206c61746572000000000000000000000000000000000000600082015250565b6000620019b4600e8362001883565b9150620019c1826200197c565b600e82019050919050565b6000620019d982620018dd565b9150620019e7828462001945565b9150620019f482620019a5565b915081905092915050565b6000601f19601f8301169050919050565b600062001a1d8262001904565b62001a298185620012dc565b935062001a3b8185602086016200190f565b62001a4681620019ff565b840191505092915050565b6000602082019050818103600083015262001a6d818462001a10565b905092915050565b7f54696d6520476170204368616e67653a205072696e636970616c204c6f636b2060008201527f697320616c7265616479206465706c6f79656400000000000000000000000000602082015250565b600062001ad3603383620012dc565b915062001ae08262001a75565b604082019050919050565b6000602082019050818103600083015262001b068162001ac4565b9050919050565b7f4f776e61626c653a206e6577206f776e657220697320746865207a65726f206160008201527f6464726573730000000000000000000000000000000000000000000000000000602082015250565b600062001b6b602683620012dc565b915062001b788262001b0d565b604082019050919050565b6000602082019050818103600083015262001b9e8162001b5c565b9050919050565b7f4e487b7100000000000000000000000000000000000000000000000000000000600052604160045260246000fd5b7f4e487b7100000000000000000000000000000000000000000000000000000000600052601260045260246000fd5b7f4e487b7100000000000000000000000000000000000000000000000000000000600052601160045260246000fd5b600062001c3f82620010ef565b915062001c4c83620010ef565b9250827fffffffffffffffffffffffffffffffffffffffffffffffffffffffffffffffff0382111562001c845762001c8362001c03565b5b828201905092915050565b7f4f776e61626c653a2063616c6c6572206973206e6f7420746865206f776e6572600082015250565b600062001cc7602083620012dc565b915062001cd48262001c8f565b602082019050919050565b6000602082019050818103600083015262001cfa8162001cb8565b905091905056fe60806040526000600560006101000a81548160ff0219169083151502179055506000600560016101000a81548160ff0219169083151502179055503480156200004757600080fd5b5060405162000fd038038062000fd083398181016040528101906200006d91906200035c565b8160008111620000b4576040517f08c379a0000000000000000000000000000000000000000000000000000000008152600401620000ab906200046b565b60405180910390fd5b81620000cd4260b46200029f60201b620005651760201c565b811162000111576040517f08c379a0000000000000000000000000000000000000000000000000000000008152600401620001089062000503565b60405180910390fd5b866000806101000a81548173ffffffffffffffffffffffffffffffffffffffff021916908373ffffffffffffffffffffffffffffffffffffffff16021790555085600160006101000a81548173ffffffffffffffffffffffffffffffffffffffff021916908373ffffffffffffffffffffffffffffffffffffffff16021790555084600260006101000a81548173ffffffffffffffffffffffffffffffffffffffff021916908373ffffffffffffffffffffffffffffffffffffffff1602179055508360038190555082600481905550600260009054906101000a900473ffffffffffffffffffffffffffffffffffffffff1673ffffffffffffffffffffffffffffffffffffffff16600160009054906101000a900473ffffffffffffffffffffffffffffffffffffffff1673ffffffffffffffffffffffffffffffffffffffff167f0de1f8074a7a45d3de4f44d34e1f98281a3e5b6247a898c9cddc309674a2a2cb6003546004546040516200028a92919062000536565b60405180910390a350505050505050620005ef565b60008183620002af919062000592565b905092915050565b600080fd5b600073ffffffffffffffffffffffffffffffffffffffff82169050919050565b6000620002e982620002bc565b9050919050565b620002fb81620002dc565b81146200030757600080fd5b50565b6000815190506200031b81620002f0565b92915050565b6000819050919050565b620003368162000321565b81146200034257600080fd5b50565b60008151905062000356816200032b565b92915050565b600080600080600060a086880312156200037b576200037a620002b7565b5b60006200038b888289016200030a565b95505060206200039e888289016200030a565b9450506040620003b1888289016200030a565b9350506060620003c48882890162000345565b9250506080620003d78882890162000345565b9150509295509295909350565b600082825260208201905092915050565b7f546f6b656e3a2053656e64206120706f73697469766520616d6f756e74206f6660008201527f20746f6b656e0000000000000000000000000000000000000000000000000000602082015250565b600062000453602683620003e4565b91506200046082620003f5565b604082019050919050565b60006020820190508181036000830152620004868162000444565b9050919050565b7f54696d653a20556e6c6f636b2054696d65206d757374206265206174206c656160008201527f737420313830207365636f6e6473206c61746572000000000000000000000000602082015250565b6000620004eb603483620003e4565b9150620004f8826200048d565b604082019050919050565b600060208201905081810360008301526200051e81620004dc565b9050919050565b620005308162000321565b82525050565b60006040820190506200054d600083018562000525565b6200055c602083018462000525565b9392505050565b7f4e487b7100000000000000000000000000000000000000000000000000000000600052601160045260246000fd5b60006200059f8262000321565b9150620005ac8362000321565b9250827fffffffffffffffffffffffffffffffffffffffffffffffffffffffffffffffff03821115620005e457620005e362000563565b5b828201905092915050565b6109d180620005ff6000396000f3fe60806040526004361061002d5760003560e01c80633ccfd60b14610036578063590e1ae31461005457610034565b3661003457005b005b61003e610072565b60405161004b9190610596565b60405180910390f35b61005c61029e565b6040516100699190610596565b60405180910390f35b60003373ffffffffffffffffffffffffffffffffffffffff16600260009054906101000a900473ffffffffffffffffffffffffffffffffffffffff1673ffffffffffffffffffffffffffffffffffffffff1614610104576040517f08c379a00000000000000000000000000000000000000000000000000000000081526004016100fb90610634565b60405180910390fd5b60001515600560009054906101000a900460ff1615151461015a576040517f08c379a0000000000000000000000000000000000000000000000000000000008152600401610151906106a0565b60405180910390fd5b42600454101561019f576040517f08c379a000000000000000000000000000000000000000000000000000000000815260040161019690610732565b60405180910390fd5b6001600560006101000a81548160ff021916908315150217905550600260009054906101000a900473ffffffffffffffffffffffffffffffffffffffff1673ffffffffffffffffffffffffffffffffffffffff166108fc6003549081150290604051600060405180830381858888f19350505050158015610224573d6000803e3d6000fd5b50600260009054906101000a900473ffffffffffffffffffffffffffffffffffffffff1673ffffffffffffffffffffffffffffffffffffffff167f6a0d6da0beb3b4dc509c4559b55ca29b5f90af6d351a3f9365bb5ab6b572c96060035460405161028f919061076b565b60405180910390a26001905090565b60003373ffffffffffffffffffffffffffffffffffffffff16600160009054906101000a900473ffffffffffffffffffffffffffffffffffffffff1673ffffffffffffffffffffffffffffffffffffffff1614610330576040517f08c379a0000000000000000000000000000000000000000000000000000000008152600401610327906107f8565b60405180910390fd5b60001515600560019054906101000a900460ff16151514610386576040517f08c379a000000000000000000000000000000000000000000000000000000000815260040161037d90610864565b60405180910390fd5b60001515600560009054906101000a900460ff161515146103dc576040517f08c379a00000000000000000000000000000000000000000000000000000000081526004016103d3906108f6565b60405180910390fd5b42600454106104665760008054906101000a900473ffffffffffffffffffffffffffffffffffffffff1673ffffffffffffffffffffffffffffffffffffffff16639c5a416a6040518163ffffffff1660e01b8152600401600060405180830381600087803b15801561044d57600080fd5b505af1158015610461573d6000803e3d6000fd5b505050505b6001600560016101000a81548160ff021916908315150217905550600160009054906101000a900473ffffffffffffffffffffffffffffffffffffffff1673ffffffffffffffffffffffffffffffffffffffff166108fc6003549081150290604051600060405180830381858888f193505050501580156104eb573d6000803e3d6000fd5b50600160009054906101000a900473ffffffffffffffffffffffffffffffffffffffff1673ffffffffffffffffffffffffffffffffffffffff167fecc88f8ff3d5d68ef9e8a892f48408080ab947617b2256affbba9ae80898a833600354604051610556919061076b565b60405180910390a26001905090565b600081836105739190610945565b905092915050565b60008115159050919050565b6105908161057b565b82525050565b60006020820190506105ab6000830184610587565b92915050565b600082825260208201905092915050565b7f5769746864726177616c3a204e6f742053746970756c6174656420526563656960008201527f7665720000000000000000000000000000000000000000000000000000000000602082015250565b600061061e6023836105b1565b9150610629826105c2565b604082019050919050565b6000602082019050818103600083015261064d81610611565b9050919050565b7f5769746864726177616c3a20416c72656164792057697468647261776e000000600082015250565b600061068a601d836105b1565b915061069582610654565b602082019050919050565b600060208201905081810360008301526106b98161067d565b9050919050565b7f5769746864726177616c3a20556e6c6f636b2054696d652068617320456c617060008201527f7365640000000000000000000000000000000000000000000000000000000000602082015250565b600061071c6023836105b1565b9150610727826106c0565b604082019050919050565b6000602082019050818103600083015261074b8161070f565b9050919050565b6000819050919050565b61076581610752565b82525050565b6000602082019050610780600083018461075c565b92915050565b7f526566756e643a204e6f742053656e6465722c20706c6561736520757365207460008201527f686520636f7272656374206163636f756e740000000000000000000000000000602082015250565b60006107e26032836105b1565b91506107ed82610786565b604082019050919050565b60006020820190508181036000830152610811816107d5565b9050919050565b7f526566756e643a20416c726561647920526566756e6465640000000000000000600082015250565b600061084e6018836105b1565b915061085982610818565b602082019050919050565b6000602082019050818103600083015261087d81610841565b9050919050565b7f526566756e643a20596f75206d6179206e6f7420726566756e6420617320612060008201527f7769746864726177616c20686173206265656e2070726f636573736564000000602082015250565b60006108e0603d836105b1565b91506108eb82610884565b604082019050919050565b6000602082019050818103600083015261090f816108d3565b9050919050565b7f4e487b7100000000000000000000000000000000000000000000000000000000600052601160045260246000fd5b600061095082610752565b915061095b83610752565b9250827fffffffffffffffffffffffffffffffffffffffffffffffffffffffffffffffff038211156109905761098f610916565b5b82820190509291505056fea26469706673582212206d2963aaa72f73ca6f411bfa9dc8815fb61ce6da00618bfd033ca8b77a0f1cf264736f6c63430008090033a2646970667358221220335344914ab4b06005aee8f0269929eeb8f83b10e803e8ecf2d8f98355b2cce364736f6c63430008090033",
  "linkReferences": {},
  "deployedLinkReferences": {}
}