{
  "_format": "hh-sol-artifact-1",
  "contractName": "NewToken",
  "sourceName": "contracts/NewToken.sol",
  "abi": [
    {
      "inputs": [
        {
          "internalType": "string",
          "name": "name_",
          "type": "string"
        },
        {
          "internalType": "string",
          "name": "symbol_",
          "type": "string"
        }
      ],
      "stateMutability": "nonpayable",
      "type": "constructor"
    },
    {
      "anonymous": false,
      "inputs": [
        {
          "indexed": true,
          "internalType": "address",
          "name": "owner",
          "type": "address"
        },
        {
          "indexed": true,
          "internalType": "address",
          "name": "spender",
          "type": "address"
        },
        {
          "indexed": false,
          "internalType": "uint256",
          "name": "value",
          "type": "uint256"
        }
      ],
      "name": "Approval",
      "type": "event"
    },
    {
      "anonymous": false,
      "inputs": [
        {
          "indexed": false,
          "internalType": "address",
          "name": "account",
          "type": "address"
        }
      ],
      "name": "Paused",
      "type": "event"
    },
    {
      "anonymous": false,
      "inputs": [
        {
          "indexed": true,
          "internalType": "bytes32",
          "name": "role",
          "type": "bytes32"
        },
        {
          "indexed": true,
          "internalType": "bytes32",
          "name": "previousAdminRole",
          "type": "bytes32"
        },
        {
          "indexed": true,
          "internalType": "bytes32",
          "name": "newAdminRole",
          "type": "bytes32"
        }
      ],
      "name": "RoleAdminChanged",
      "type": "event"
    },
    {
      "anonymous": false,
      "inputs": [
        {
          "indexed": true,
          "internalType": "bytes32",
          "name": "role",
          "type": "bytes32"
        },
        {
          "indexed": true,
          "internalType": "address",
          "name": "account",
          "type": "address"
        },
        {
          "indexed": true,
          "internalType": "address",
          "name": "sender",
          "type": "address"
        }
      ],
      "name": "RoleGranted",
      "type": "event"
    },
    {
      "anonymous": false,
      "inputs": [
        {
          "indexed": true,
          "internalType": "bytes32",
          "name": "role",
          "type": "bytes32"
        },
        {
          "indexed": true,
          "internalType": "address",
          "name": "account",
          "type": "address"
        },
        {
          "indexed": true,
          "internalType": "address",
          "name": "sender",
          "type": "address"
        }
      ],
      "name": "RoleRevoked",
      "type": "event"
    },
    {
      "anonymous": false,
      "inputs": [
        {
          "indexed": true,
          "internalType": "address",
          "name": "from",
          "type": "address"
        },
        {
          "indexed": true,
          "internalType": "address",
          "name": "to",
          "type": "address"
        },
        {
          "indexed": false,
          "internalType": "uint256",
          "name": "value",
          "type": "uint256"
        }
      ],
      "name": "Transfer",
      "type": "event"
    },
    {
      "anonymous": false,
      "inputs": [
        {
          "indexed": false,
          "internalType": "address",
          "name": "account",
          "type": "address"
        }
      ],
      "name": "Unpaused",
      "type": "event"
    },
    {
      "inputs": [],
      "name": "DEFAULT_ADMIN_ROLE",
      "outputs": [
        {
          "internalType": "bytes32",
          "name": "",
          "type": "bytes32"
        }
      ],
      "stateMutability": "view",
      "type": "function"
    },
    {
      "inputs": [
        {
          "internalType": "address",
          "name": "owner",
          "type": "address"
        },
        {
          "internalType": "address",
          "name": "spender",
          "type": "address"
        }
      ],
      "name": "allowance",
      "outputs": [
        {
          "internalType": "uint256",
          "name": "",
          "type": "uint256"
        }
      ],
      "stateMutability": "view",
      "type": "function"
    },
    {
      "inputs": [
        {
          "internalType": "address",
          "name": "spender",
          "type": "address"
        },
        {
          "internalType": "uint256",
          "name": "amount",
          "type": "uint256"
        }
      ],
      "name": "approve",
      "outputs": [
        {
          "internalType": "bool",
          "name": "",
          "type": "bool"
        }
      ],
      "stateMutability": "nonpayable",
      "type": "function"
    },
    {
      "inputs": [
        {
          "internalType": "address",
          "name": "account",
          "type": "address"
        }
      ],
      "name": "balanceOf",
      "outputs": [
        {
          "internalType": "uint256",
          "name": "",
          "type": "uint256"
        }
      ],
      "stateMutability": "view",
      "type": "function"
    },
    {
      "inputs": [
        {
          "internalType": "uint256",
          "name": "amount",
          "type": "uint256"
        }
      ],
      "name": "burn",
      "outputs": [],
      "stateMutability": "nonpayable",
      "type": "function"
    },
    {
      "inputs": [
        {
          "internalType": "address",
          "name": "account",
          "type": "address"
        },
        {
          "internalType": "uint256",
          "name": "amount",
          "type": "uint256"
        }
      ],
      "name": "burnFrom",
      "outputs": [],
      "stateMutability": "nonpayable",
      "type": "function"
    },
    {
      "inputs": [],
      "name": "decimals",
      "outputs": [
        {
          "internalType": "uint8",
          "name": "",
          "type": "uint8"
        }
      ],
      "stateMutability": "view",
      "type": "function"
    },
    {
      "inputs": [
        {
          "internalType": "address",
          "name": "spender",
          "type": "address"
        },
        {
          "internalType": "uint256",
          "name": "subtractedValue",
          "type": "uint256"
        }
      ],
      "name": "decreaseAllowance",
      "outputs": [
        {
          "internalType": "bool",
          "name": "",
          "type": "bool"
        }
      ],
      "stateMutability": "nonpayable",
      "type": "function"
    },
    {
      "inputs": [
        {
          "internalType": "bytes32",
          "name": "role",
          "type": "bytes32"
        }
      ],
      "name": "getRoleAdmin",
      "outputs": [
        {
          "internalType": "bytes32",
          "name": "",
          "type": "bytes32"
        }
      ],
      "stateMutability": "view",
      "type": "function"
    },
    {
      "inputs": [
        {
          "internalType": "bytes32",
          "name": "role",
          "type": "bytes32"
        },
        {
          "internalType": "address",
          "name": "account",
          "type": "address"
        }
      ],
      "name": "grantRole",
      "outputs": [],
      "stateMutability": "nonpayable",
      "type": "function"
    },
    {
      "inputs": [
        {
          "internalType": "bytes32",
          "name": "role",
          "type": "bytes32"
        },
        {
          "internalType": "address",
          "name": "account",
          "type": "address"
        }
      ],
      "name": "hasRole",
      "outputs": [
        {
          "internalType": "bool",
          "name": "",
          "type": "bool"
        }
      ],
      "stateMutability": "view",
      "type": "function"
    },
    {
      "inputs": [
        {
          "internalType": "address",
          "name": "spender",
          "type": "address"
        },
        {
          "internalType": "uint256",
          "name": "addedValue",
          "type": "uint256"
        }
      ],
      "name": "increaseAllowance",
      "outputs": [
        {
          "internalType": "bool",
          "name": "",
          "type": "bool"
        }
      ],
      "stateMutability": "nonpayable",
      "type": "function"
    },
    {
      "inputs": [
        {
          "internalType": "address",
          "name": "to",
          "type": "address"
        },
        {
          "internalType": "uint256",
          "name": "amount",
          "type": "uint256"
        }
      ],
      "name": "mint",
      "outputs": [],
      "stateMutability": "nonpayable",
      "type": "function"
    },
    {
      "inputs": [],
      "name": "name",
      "outputs": [
        {
          "internalType": "string",
          "name": "",
          "type": "string"
        }
      ],
      "stateMutability": "view",
      "type": "function"
    },
    {
      "inputs": [],
      "name": "pause",
      "outputs": [],
      "stateMutability": "nonpayable",
      "type": "function"
    },
    {
      "inputs": [],
      "name": "paused",
      "outputs": [
        {
          "internalType": "bool",
          "name": "",
          "type": "bool"
        }
      ],
      "stateMutability": "view",
      "type": "function"
    },
    {
      "inputs": [
        {
          "internalType": "bytes32",
          "name": "role",
          "type": "bytes32"
        },
        {
          "internalType": "address",
          "name": "account",
          "type": "address"
        }
      ],
      "name": "renounceRole",
      "outputs": [],
      "stateMutability": "nonpayable",
      "type": "function"
    },
    {
      "inputs": [
        {
          "internalType": "bytes32",
          "name": "role",
          "type": "bytes32"
        },
        {
          "internalType": "address",
          "name": "account",
          "type": "address"
        }
      ],
      "name": "revokeRole",
      "outputs": [],
      "stateMutability": "nonpayable",
      "type": "function"
    },
    {
      "inputs": [
        {
          "internalType": "bytes4",
          "name": "interfaceId",
          "type": "bytes4"
        }
      ],
      "name": "supportsInterface",
      "outputs": [
        {
          "internalType": "bool",
          "name": "",
          "type": "bool"
        }
      ],
      "stateMutability": "view",
      "type": "function"
    },
    {
      "inputs": [],
      "name": "symbol",
      "outputs": [
        {
          "internalType": "string",
          "name": "",
          "type": "string"
        }
      ],
      "stateMutability": "view",
      "type": "function"
    },
    {
      "inputs": [],
      "name": "totalSupply",
      "outputs": [
        {
          "internalType": "uint256",
          "name": "",
          "type": "uint256"
        }
      ],
      "stateMutability": "view",
      "type": "function"
    },
    {
      "inputs": [
        {
          "internalType": "address",
          "name": "to",
          "type": "address"
        },
        {
          "internalType": "uint256",
          "name": "amount",
          "type": "uint256"
        }
      ],
      "name": "transfer",
      "outputs": [
        {
          "internalType": "bool",
          "name": "",
          "type": "bool"
        }
      ],
      "stateMutability": "nonpayable",
      "type": "function"
    },
    {
      "inputs": [
        {
          "internalType": "address",
          "name": "from",
          "type": "address"
        },
        {
          "internalType": "address",
          "name": "to",
          "type": "address"
        },
        {
          "internalType": "uint256",
          "name": "amount",
          "type": "uint256"
        }
      ],
      "name": "transferFrom",
      "outputs": [
        {
          "internalType": "bool",
          "name": "",
          "type": "bool"
        }
      ],
      "stateMutability": "nonpayable",
      "type": "function"
    },
    {
      "inputs": [],
      "name": "unpause",
      "outputs": [],
      "stateMutability": "nonpayable",
      "type": "function"
    }
  ],
  "bytecode": "0x60806040523480156200001157600080fd5b5060405162003474380380620034748339818101604052810190620000379190620006b0565b818181600390805190602001906200005192919062000463565b5080600490805190602001906200006a92919062000463565b5050506000600560006101000a81548160ff0219169083151502179055506200009d6000801b33620000e460201b60201c565b620000dc33620000b2620001d660201b60201c565b600a620000c09190620008cf565b620f4240620000d0919062000920565b620001df60201b60201c565b505062000b66565b620000f682826200034d60201b60201c565b620001d25760016006600084815260200190815260200160002060000160008373ffffffffffffffffffffffffffffffffffffffff1673ffffffffffffffffffffffffffffffffffffffff16815260200190815260200160002060006101000a81548160ff02191690831515021790555062000177620003b860201b60201c565b73ffffffffffffffffffffffffffffffffffffffff168173ffffffffffffffffffffffffffffffffffffffff16837f2f8788117e7eff1d82e926ec794901d17c78024a50270940304540a733656f0d60405160405180910390a45b5050565b60006012905090565b600073ffffffffffffffffffffffffffffffffffffffff168273ffffffffffffffffffffffffffffffffffffffff16141562000252576040517f08c379a00000000000000000000000000000000000000000000000000000000081526004016200024990620009e2565b60405180910390fd5b6200026660008383620003c060201b60201c565b80600260008282546200027a919062000a04565b92505081905550806000808473ffffffffffffffffffffffffffffffffffffffff1673ffffffffffffffffffffffffffffffffffffffff168152602001908152602001600020600082825401925050819055508173ffffffffffffffffffffffffffffffffffffffff16600073ffffffffffffffffffffffffffffffffffffffff167fddf252ad1be2c89b69c2b068fc378daa952ba7f163c4a11628f55a4df523b3ef836040516200032d919062000a72565b60405180910390a36200034960008383620003ed60201b60201c565b5050565b60006006600084815260200190815260200160002060000160008373ffffffffffffffffffffffffffffffffffffffff1673ffffffffffffffffffffffffffffffffffffffff16815260200190815260200160002060009054906101000a900460ff16905092915050565b600033905090565b620003d0620003f260201b60201c565b620003e88383836200044760201b62000b001760201c565b505050565b505050565b620004026200044c60201b60201c565b1562000445576040517f08c379a00000000000000000000000000000000000000000000000000000000081526004016200043c9062000adf565b60405180910390fd5b565b505050565b6000600560009054906101000a900460ff16905090565b828054620004719062000b30565b90600052602060002090601f016020900481019282620004955760008555620004e1565b82601f10620004b057805160ff1916838001178555620004e1565b82800160010185558215620004e1579182015b82811115620004e0578251825591602001919060010190620004c3565b5b509050620004f09190620004f4565b5090565b5b808211156200050f576000816000905550600101620004f5565b5090565b6000604051905090565b600080fd5b600080fd5b600080fd5b600080fd5b6000601f19601f8301169050919050565b7f4e487b7100000000000000000000000000000000000000000000000000000000600052604160045260246000fd5b6200057c8262000531565b810181811067ffffffffffffffff821117156200059e576200059d62000542565b5b80604052505050565b6000620005b362000513565b9050620005c1828262000571565b919050565b600067ffffffffffffffff821115620005e457620005e362000542565b5b620005ef8262000531565b9050602081019050919050565b60005b838110156200061c578082015181840152602081019050620005ff565b838111156200062c576000848401525b50505050565b6000620006496200064384620005c6565b620005a7565b9050828152602081018484840111156200066857620006676200052c565b5b62000675848285620005fc565b509392505050565b600082601f83011262000695576200069462000527565b5b8151620006a784826020860162000632565b91505092915050565b60008060408385031215620006ca57620006c96200051d565b5b600083015167ffffffffffffffff811115620006eb57620006ea62000522565b5b620006f9858286016200067d565b925050602083015167ffffffffffffffff8111156200071d576200071c62000522565b5b6200072b858286016200067d565b9150509250929050565b7f4e487b7100000000000000000000000000000000000000000000000000000000600052601160045260246000fd5b60008160011c9050919050565b6000808291508390505b6001851115620007c3578086048111156200079b576200079a62000735565b5b6001851615620007ab5780820291505b8081029050620007bb8562000764565b94506200077b565b94509492505050565b600082620007de5760019050620008b1565b81620007ee5760009050620008b1565b8160018114620008075760028114620008125762000848565b6001915050620008b1565b60ff84111562000827576200082662000735565b5b8360020a91508482111562000841576200084062000735565b5b50620008b1565b5060208310610133831016604e8410600b8410161715620008825782820a9050838111156200087c576200087b62000735565b5b620008b1565b62000891848484600162000771565b92509050818404811115620008ab57620008aa62000735565b5b81810290505b9392505050565b6000819050919050565b600060ff82169050919050565b6000620008dc82620008b8565b9150620008e983620008c2565b9250620009187fffffffffffffffffffffffffffffffffffffffffffffffffffffffffffffffff8484620007cc565b905092915050565b60006200092d82620008b8565b91506200093a83620008b8565b9250817fffffffffffffffffffffffffffffffffffffffffffffffffffffffffffffffff048311821515161562000976576200097562000735565b5b828202905092915050565b600082825260208201905092915050565b7f45524332303a206d696e7420746f20746865207a65726f206164647265737300600082015250565b6000620009ca601f8362000981565b9150620009d78262000992565b602082019050919050565b60006020820190508181036000830152620009fd81620009bb565b9050919050565b600062000a1182620008b8565b915062000a1e83620008b8565b9250827fffffffffffffffffffffffffffffffffffffffffffffffffffffffffffffffff0382111562000a565762000a5562000735565b5b828201905092915050565b62000a6c81620008b8565b82525050565b600060208201905062000a89600083018462000a61565b92915050565b7f5061757361626c653a2070617573656400000000000000000000000000000000600082015250565b600062000ac760108362000981565b915062000ad48262000a8f565b602082019050919050565b6000602082019050818103600083015262000afa8162000ab8565b9050919050565b7f4e487b7100000000000000000000000000000000000000000000000000000000600052602260045260246000fd5b6000600282049050600182168062000b4957607f821691505b6020821081141562000b605762000b5f62000b01565b5b50919050565b6128fe8062000b766000396000f3fe608060405234801561001057600080fd5b50600436106101585760003560e01c806342966c68116100c357806395d89b411161007c57806395d89b41146103c5578063a217fddf146103e3578063a457c2d714610401578063a9059cbb14610431578063d547741f14610461578063dd62ed3e1461047d57610158565b806342966c68146103055780635c975abb1461032157806370a082311461033f57806379cc67901461036f5780638456cb591461038b57806391d148541461039557610158565b80632f2ff15d116101155780632f2ff15d14610259578063313ce5671461027557806336568abe1461029357806339509351146102af5780633f4ba83a146102df57806340c10f19146102e957610158565b806301ffc9a71461015d57806306fdde031461018d578063095ea7b3146101ab57806318160ddd146101db57806323b872dd146101f9578063248a9ca314610229575b600080fd5b61017760048036038101906101729190611a7d565b6104ad565b6040516101849190611ac5565b60405180910390f35b6101956105f7565b6040516101a29190611b79565b60405180910390f35b6101c560048036038101906101c09190611c2f565b610689565b6040516101d29190611ac5565b60405180910390f35b6101e36106ac565b6040516101f09190611c7e565b60405180910390f35b610213600480360381019061020e9190611c99565b6106b6565b6040516102209190611ac5565b60405180910390f35b610243600480360381019061023e9190611d22565b6106e5565b6040516102509190611d5e565b60405180910390f35b610273600480360381019061026e9190611d79565b610705565b005b61027d610726565b60405161028a9190611dd5565b60405180910390f35b6102ad60048036038101906102a89190611d79565b61072f565b005b6102c960048036038101906102c49190611c2f565b6107b2565b6040516102d69190611ac5565b60405180910390f35b6102e76107e9565b005b61030360048036038101906102fe9190611c2f565b610801565b005b61031f600480360381019061031a9190611df0565b61080f565b005b610329610823565b6040516103369190611ac5565b60405180910390f35b61035960048036038101906103549190611e1d565b61083a565b6040516103669190611c7e565b60405180910390f35b61038960048036038101906103849190611c2f565b610882565b005b6103936108a2565b005b6103af60048036038101906103aa9190611d79565b6108ba565b6040516103bc9190611ac5565b60405180910390f35b6103cd610925565b6040516103da9190611b79565b60405180910390f35b6103eb6109b7565b6040516103f89190611d5e565b60405180910390f35b61041b60048036038101906104169190611c2f565b6109be565b6040516104289190611ac5565b60405180910390f35b61044b60048036038101906104469190611c2f565b610a35565b6040516104589190611ac5565b60405180910390f35b61047b60048036038101906104769190611d79565b610a58565b005b61049760048036038101906104929190611e4a565b610a79565b6040516104a49190611c7e565b60405180910390f35b60007f36372b07000000000000000000000000000000000000000000000000000000007bffffffffffffffffffffffffffffffffffffffffffffffffffffffff1916827bffffffffffffffffffffffffffffffffffffffffffffffffffffffff1916148061057857507f3b5a0bf8000000000000000000000000000000000000000000000000000000007bffffffffffffffffffffffffffffffffffffffffffffffffffffffff1916827bffffffffffffffffffffffffffffffffffffffffffffffffffffffff1916145b806105e057507f5c975abb000000000000000000000000000000000000000000000000000000007bffffffffffffffffffffffffffffffffffffffffffffffffffffffff1916827bffffffffffffffffffffffffffffffffffffffffffffffffffffffff1916145b806105f057506105ef82610b05565b5b9050919050565b60606003805461060690611eb9565b80601f016020809104026020016040519081016040528092919081815260200182805461063290611eb9565b801561067f5780601f106106545761010080835404028352916020019161067f565b820191906000526020600020905b81548152906001019060200180831161066257829003601f168201915b5050505050905090565b600080610694610b7f565b90506106a1818585610b87565b600191505092915050565b6000600254905090565b6000806106c1610b7f565b90506106ce858285610d52565b6106d9858585610dde565b60019150509392505050565b600060066000838152602001908152602001600020600101549050919050565b61070e826106e5565b61071781611056565b610721838361106a565b505050565b60006012905090565b610737610b7f565b73ffffffffffffffffffffffffffffffffffffffff168173ffffffffffffffffffffffffffffffffffffffff16146107a4576040517f08c379a000000000000000000000000000000000000000000000000000000000815260040161079b90611f5d565b60405180910390fd5b6107ae828261114b565b5050565b6000806107bd610b7f565b90506107de8185856107cf8589610a79565b6107d99190611fac565b610b87565b600191505092915050565b6000801b6107f681611056565b6107fe61122d565b50565b61080b8282611290565b5050565b61082061081a610b7f565b826113e7565b50565b6000600560009054906101000a900460ff16905090565b60008060008373ffffffffffffffffffffffffffffffffffffffff1673ffffffffffffffffffffffffffffffffffffffff168152602001908152602001600020549050919050565b6108948261088e610b7f565b83610d52565b61089e82826113e7565b5050565b6000801b6108af81611056565b6108b76115b5565b50565b60006006600084815260200190815260200160002060000160008373ffffffffffffffffffffffffffffffffffffffff1673ffffffffffffffffffffffffffffffffffffffff16815260200190815260200160002060009054906101000a900460ff16905092915050565b60606004805461093490611eb9565b80601f016020809104026020016040519081016040528092919081815260200182805461096090611eb9565b80156109ad5780601f10610982576101008083540402835291602001916109ad565b820191906000526020600020905b81548152906001019060200180831161099057829003601f168201915b5050505050905090565b6000801b81565b6000806109c9610b7f565b905060006109d78286610a79565b905083811015610a1c576040517f08c379a0000000000000000000000000000000000000000000000000000000008152600401610a1390612074565b60405180910390fd5b610a298286868403610b87565b60019250505092915050565b600080610a40610b7f565b9050610a4d818585610dde565b600191505092915050565b610a61826106e5565b610a6a81611056565b610a74838361114b565b505050565b6000600160008473ffffffffffffffffffffffffffffffffffffffff1673ffffffffffffffffffffffffffffffffffffffff16815260200190815260200160002060008373ffffffffffffffffffffffffffffffffffffffff1673ffffffffffffffffffffffffffffffffffffffff16815260200190815260200160002054905092915050565b505050565b60007f7965db0b000000000000000000000000000000000000000000000000000000007bffffffffffffffffffffffffffffffffffffffffffffffffffffffff1916827bffffffffffffffffffffffffffffffffffffffffffffffffffffffff19161480610b785750610b7782611618565b5b9050919050565b600033905090565b600073ffffffffffffffffffffffffffffffffffffffff168373ffffffffffffffffffffffffffffffffffffffff161415610bf7576040517f08c379a0000000000000000000000000000000000000000000000000000000008152600401610bee90612106565b60405180910390fd5b600073ffffffffffffffffffffffffffffffffffffffff168273ffffffffffffffffffffffffffffffffffffffff161415610c67576040517f08c379a0000000000000000000000000000000000000000000000000000000008152600401610c5e90612198565b60405180910390fd5b80600160008573ffffffffffffffffffffffffffffffffffffffff1673ffffffffffffffffffffffffffffffffffffffff16815260200190815260200160002060008473ffffffffffffffffffffffffffffffffffffffff1673ffffffffffffffffffffffffffffffffffffffff168152602001908152602001600020819055508173ffffffffffffffffffffffffffffffffffffffff168373ffffffffffffffffffffffffffffffffffffffff167f8c5be1e5ebec7d5bd14f71427d1e84f3dd0314c0f7b2291e5b200ac8c7c3b92583604051610d459190611c7e565b60405180910390a3505050565b6000610d5e8484610a79565b90507fffffffffffffffffffffffffffffffffffffffffffffffffffffffffffffffff8114610dd85781811015610dca576040517f08c379a0000000000000000000000000000000000000000000000000000000008152600401610dc190612204565b60405180910390fd5b610dd78484848403610b87565b5b50505050565b600073ffffffffffffffffffffffffffffffffffffffff168373ffffffffffffffffffffffffffffffffffffffff161415610e4e576040517f08c379a0000000000000000000000000000000000000000000000000000000008152600401610e4590612296565b60405180910390fd5b600073ffffffffffffffffffffffffffffffffffffffff168273ffffffffffffffffffffffffffffffffffffffff161415610ebe576040517f08c379a0000000000000000000000000000000000000000000000000000000008152600401610eb590612328565b60405180910390fd5b610ec9838383611682565b60008060008573ffffffffffffffffffffffffffffffffffffffff1673ffffffffffffffffffffffffffffffffffffffff16815260200190815260200160002054905081811015610f4f576040517f08c379a0000000000000000000000000000000000000000000000000000000008152600401610f46906123ba565b60405180910390fd5b8181036000808673ffffffffffffffffffffffffffffffffffffffff1673ffffffffffffffffffffffffffffffffffffffff16815260200190815260200160002081905550816000808573ffffffffffffffffffffffffffffffffffffffff1673ffffffffffffffffffffffffffffffffffffffff168152602001908152602001600020600082825401925050819055508273ffffffffffffffffffffffffffffffffffffffff168473ffffffffffffffffffffffffffffffffffffffff167fddf252ad1be2c89b69c2b068fc378daa952ba7f163c4a11628f55a4df523b3ef8460405161103d9190611c7e565b60405180910390a361105084848461169a565b50505050565b61106781611062610b7f565b61169f565b50565b61107482826108ba565b6111475760016006600084815260200190815260200160002060000160008373ffffffffffffffffffffffffffffffffffffffff1673ffffffffffffffffffffffffffffffffffffffff16815260200190815260200160002060006101000a81548160ff0219169083151502179055506110ec610b7f565b73ffffffffffffffffffffffffffffffffffffffff168173ffffffffffffffffffffffffffffffffffffffff16837f2f8788117e7eff1d82e926ec794901d17c78024a50270940304540a733656f0d60405160405180910390a45b5050565b61115582826108ba565b156112295760006006600084815260200190815260200160002060000160008373ffffffffffffffffffffffffffffffffffffffff1673ffffffffffffffffffffffffffffffffffffffff16815260200190815260200160002060006101000a81548160ff0219169083151502179055506111ce610b7f565b73ffffffffffffffffffffffffffffffffffffffff168173ffffffffffffffffffffffffffffffffffffffff16837ff6391f5c32d9c69d2a47ea670b442974b53935d1edc7fd64eb21e047a839171b60405160405180910390a45b5050565b611235611724565b6000600560006101000a81548160ff0219169083151502179055507f5db9ee0a495bf2e6ff9c91a7834c1ba4fdd244a5e8aa4e537bd38aeae4b073aa611279610b7f565b60405161128691906123e9565b60405180910390a1565b600073ffffffffffffffffffffffffffffffffffffffff168273ffffffffffffffffffffffffffffffffffffffff161415611300576040517f08c379a00000000000000000000000000000000000000000000000000000000081526004016112f790612450565b60405180910390fd5b61130c60008383611682565b806002600082825461131e9190611fac565b92505081905550806000808473ffffffffffffffffffffffffffffffffffffffff1673ffffffffffffffffffffffffffffffffffffffff168152602001908152602001600020600082825401925050819055508173ffffffffffffffffffffffffffffffffffffffff16600073ffffffffffffffffffffffffffffffffffffffff167fddf252ad1be2c89b69c2b068fc378daa952ba7f163c4a11628f55a4df523b3ef836040516113cf9190611c7e565b60405180910390a36113e36000838361169a565b5050565b600073ffffffffffffffffffffffffffffffffffffffff168273ffffffffffffffffffffffffffffffffffffffff161415611457576040517f08c379a000000000000000000000000000000000000000000000000000000000815260040161144e906124e2565b60405180910390fd5b61146382600083611682565b60008060008473ffffffffffffffffffffffffffffffffffffffff1673ffffffffffffffffffffffffffffffffffffffff168152602001908152602001600020549050818110156114e9576040517f08c379a00000000000000000000000000000000000000000000000000000000081526004016114e090612574565b60405180910390fd5b8181036000808573ffffffffffffffffffffffffffffffffffffffff1673ffffffffffffffffffffffffffffffffffffffff1681526020019081526020016000208190555081600260008282540392505081905550600073ffffffffffffffffffffffffffffffffffffffff168373ffffffffffffffffffffffffffffffffffffffff167fddf252ad1be2c89b69c2b068fc378daa952ba7f163c4a11628f55a4df523b3ef8460405161159c9190611c7e565b60405180910390a36115b08360008461169a565b505050565b6115bd61176d565b6001600560006101000a81548160ff0219169083151502179055507f62e78cea01bee320cd4e420270b5ea74000d11b0c9f74754ebdbfc544b05a258611601610b7f565b60405161160e91906123e9565b60405180910390a1565b60007f01ffc9a7000000000000000000000000000000000000000000000000000000007bffffffffffffffffffffffffffffffffffffffffffffffffffffffff1916827bffffffffffffffffffffffffffffffffffffffffffffffffffffffff1916149050919050565b61168a61176d565b611695838383610b00565b505050565b505050565b6116a982826108ba565b611720576116b6816117b7565b6116c48360001c60206117e4565b6040516020016116d5929190612668565b6040516020818303038152906040526040517f08c379a00000000000000000000000000000000000000000000000000000000081526004016117179190611b79565b60405180910390fd5b5050565b61172c610823565b61176b576040517f08c379a0000000000000000000000000000000000000000000000000000000008152600401611762906126ee565b60405180910390fd5b565b611775610823565b156117b5576040517f08c379a00000000000000000000000000000000000000000000000000000000081526004016117ac9061275a565b60405180910390fd5b565b60606117dd8273ffffffffffffffffffffffffffffffffffffffff16601460ff166117e4565b9050919050565b6060600060028360026117f7919061277a565b6118019190611fac565b67ffffffffffffffff81111561181a576118196127d4565b5b6040519080825280601f01601f19166020018201604052801561184c5781602001600182028036833780820191505090505b5090507f30000000000000000000000000000000000000000000000000000000000000008160008151811061188457611883612803565b5b60200101907effffffffffffffffffffffffffffffffffffffffffffffffffffffffffffff1916908160001a9053507f7800000000000000000000000000000000000000000000000000000000000000816001815181106118e8576118e7612803565b5b60200101907effffffffffffffffffffffffffffffffffffffffffffffffffffffffffffff1916908160001a90535060006001846002611928919061277a565b6119329190611fac565b90505b60018111156119d2577f3031323334353637383961626364656600000000000000000000000000000000600f86166010811061197457611973612803565b5b1a60f81b82828151811061198b5761198a612803565b5b60200101907effffffffffffffffffffffffffffffffffffffffffffffffffffffffffffff1916908160001a905350600485901c9450806119cb90612832565b9050611935565b5060008414611a16576040517f08c379a0000000000000000000000000000000000000000000000000000000008152600401611a0d906128a8565b60405180910390fd5b8091505092915050565b600080fd5b60007fffffffff0000000000000000000000000000000000000000000000000000000082169050919050565b611a5a81611a25565b8114611a6557600080fd5b50565b600081359050611a7781611a51565b92915050565b600060208284031215611a9357611a92611a20565b5b6000611aa184828501611a68565b91505092915050565b60008115159050919050565b611abf81611aaa565b82525050565b6000602082019050611ada6000830184611ab6565b92915050565b600081519050919050565b600082825260208201905092915050565b60005b83811015611b1a578082015181840152602081019050611aff565b83811115611b29576000848401525b50505050565b6000601f19601f8301169050919050565b6000611b4b82611ae0565b611b558185611aeb565b9350611b65818560208601611afc565b611b6e81611b2f565b840191505092915050565b60006020820190508181036000830152611b938184611b40565b905092915050565b600073ffffffffffffffffffffffffffffffffffffffff82169050919050565b6000611bc682611b9b565b9050919050565b611bd681611bbb565b8114611be157600080fd5b50565b600081359050611bf381611bcd565b92915050565b6000819050919050565b611c0c81611bf9565b8114611c1757600080fd5b50565b600081359050611c2981611c03565b92915050565b60008060408385031215611c4657611c45611a20565b5b6000611c5485828601611be4565b9250506020611c6585828601611c1a565b9150509250929050565b611c7881611bf9565b82525050565b6000602082019050611c936000830184611c6f565b92915050565b600080600060608486031215611cb257611cb1611a20565b5b6000611cc086828701611be4565b9350506020611cd186828701611be4565b9250506040611ce286828701611c1a565b9150509250925092565b6000819050919050565b611cff81611cec565b8114611d0a57600080fd5b50565b600081359050611d1c81611cf6565b92915050565b600060208284031215611d3857611d37611a20565b5b6000611d4684828501611d0d565b91505092915050565b611d5881611cec565b82525050565b6000602082019050611d736000830184611d4f565b92915050565b60008060408385031215611d9057611d8f611a20565b5b6000611d9e85828601611d0d565b9250506020611daf85828601611be4565b9150509250929050565b600060ff82169050919050565b611dcf81611db9565b82525050565b6000602082019050611dea6000830184611dc6565b92915050565b600060208284031215611e0657611e05611a20565b5b6000611e1484828501611c1a565b91505092915050565b600060208284031215611e3357611e32611a20565b5b6000611e4184828501611be4565b91505092915050565b60008060408385031215611e6157611e60611a20565b5b6000611e6f85828601611be4565b9250506020611e8085828601611be4565b9150509250929050565b7f4e487b7100000000000000000000000000000000000000000000000000000000600052602260045260246000fd5b60006002820490506001821680611ed157607f821691505b60208210811415611ee557611ee4611e8a565b5b50919050565b7f416363657373436f6e74726f6c3a2063616e206f6e6c792072656e6f756e636560008201527f20726f6c657320666f722073656c660000000000000000000000000000000000602082015250565b6000611f47602f83611aeb565b9150611f5282611eeb565b604082019050919050565b60006020820190508181036000830152611f7681611f3a565b9050919050565b7f4e487b7100000000000000000000000000000000000000000000000000000000600052601160045260246000fd5b6000611fb782611bf9565b9150611fc283611bf9565b9250827fffffffffffffffffffffffffffffffffffffffffffffffffffffffffffffffff03821115611ff757611ff6611f7d565b5b828201905092915050565b7f45524332303a2064656372656173656420616c6c6f77616e63652062656c6f7760008201527f207a65726f000000000000000000000000000000000000000000000000000000602082015250565b600061205e602583611aeb565b915061206982612002565b604082019050919050565b6000602082019050818103600083015261208d81612051565b9050919050565b7f45524332303a20617070726f76652066726f6d20746865207a65726f2061646460008201527f7265737300000000000000000000000000000000000000000000000000000000602082015250565b60006120f0602483611aeb565b91506120fb82612094565b604082019050919050565b6000602082019050818103600083015261211f816120e3565b9050919050565b7f45524332303a20617070726f766520746f20746865207a65726f20616464726560008201527f7373000000000000000000000000000000000000000000000000000000000000602082015250565b6000612182602283611aeb565b915061218d82612126565b604082019050919050565b600060208201905081810360008301526121b181612175565b9050919050565b7f45524332303a20696e73756666696369656e7420616c6c6f77616e6365000000600082015250565b60006121ee601d83611aeb565b91506121f9826121b8565b602082019050919050565b6000602082019050818103600083015261221d816121e1565b9050919050565b7f45524332303a207472616e736665722066726f6d20746865207a65726f20616460008201527f6472657373000000000000000000000000000000000000000000000000000000602082015250565b6000612280602583611aeb565b915061228b82612224565b604082019050919050565b600060208201905081810360008301526122af81612273565b9050919050565b7f45524332303a207472616e7366657220746f20746865207a65726f206164647260008201527f6573730000000000000000000000000000000000000000000000000000000000602082015250565b6000612312602383611aeb565b915061231d826122b6565b604082019050919050565b6000602082019050818103600083015261234181612305565b9050919050565b7f45524332303a207472616e7366657220616d6f756e742065786365656473206260008201527f616c616e63650000000000000000000000000000000000000000000000000000602082015250565b60006123a4602683611aeb565b91506123af82612348565b604082019050919050565b600060208201905081810360008301526123d381612397565b9050919050565b6123e381611bbb565b82525050565b60006020820190506123fe60008301846123da565b92915050565b7f45524332303a206d696e7420746f20746865207a65726f206164647265737300600082015250565b600061243a601f83611aeb565b915061244582612404565b602082019050919050565b600060208201905081810360008301526124698161242d565b9050919050565b7f45524332303a206275726e2066726f6d20746865207a65726f2061646472657360008201527f7300000000000000000000000000000000000000000000000000000000000000602082015250565b60006124cc602183611aeb565b91506124d782612470565b604082019050919050565b600060208201905081810360008301526124fb816124bf565b9050919050565b7f45524332303a206275726e20616d6f756e7420657863656564732062616c616e60008201527f6365000000000000000000000000000000000000000000000000000000000000602082015250565b600061255e602283611aeb565b915061256982612502565b604082019050919050565b6000602082019050818103600083015261258d81612551565b9050919050565b600081905092915050565b7f416363657373436f6e74726f6c3a206163636f756e7420000000000000000000600082015250565b60006125d5601783612594565b91506125e08261259f565b601782019050919050565b60006125f682611ae0565b6126008185612594565b9350612610818560208601611afc565b80840191505092915050565b7f206973206d697373696e6720726f6c6520000000000000000000000000000000600082015250565b6000612652601183612594565b915061265d8261261c565b601182019050919050565b6000612673826125c8565b915061267f82856125eb565b915061268a82612645565b915061269682846125eb565b91508190509392505050565b7f5061757361626c653a206e6f7420706175736564000000000000000000000000600082015250565b60006126d8601483611aeb565b91506126e3826126a2565b602082019050919050565b60006020820190508181036000830152612707816126cb565b9050919050565b7f5061757361626c653a2070617573656400000000000000000000000000000000600082015250565b6000612744601083611aeb565b915061274f8261270e565b602082019050919050565b6000602082019050818103600083015261277381612737565b9050919050565b600061278582611bf9565b915061279083611bf9565b9250817fffffffffffffffffffffffffffffffffffffffffffffffffffffffffffffffff04831182151516156127c9576127c8611f7d565b5b828202905092915050565b7f4e487b7100000000000000000000000000000000000000000000000000000000600052604160045260246000fd5b7f4e487b7100000000000000000000000000000000000000000000000000000000600052603260045260246000fd5b600061283d82611bf9565b9150600082141561285157612850611f7d565b5b600182039050919050565b7f537472696e67733a20686578206c656e67746820696e73756666696369656e74600082015250565b6000612892602083611aeb565b915061289d8261285c565b602082019050919050565b600060208201905081810360008301526128c181612885565b905091905056fea2646970667358221220b12ca4ec80fd16adf1e5a9417d4503c151b16d7d9e46ca041ea0fc55b91b6d5564736f6c63430008090033",
  "linkReferences": {},
  "deployedLinkReferences": {}
}