{
  "_format": "hh-sol-artifact-1",
  "contractName": "PrincipalLock",
  "sourceName": "contracts/PrincipalLock.sol",
  "abi": [
    {
      "inputs": [
        {
          "internalType": "address",
          "name": "gLockAddress",
          "type": "address"
        },
        {
          "internalType": "address",
          "name": "sender",
          "type": "address"
        },
        {
          "internalType": "address",
          "name": "receiver",
          "type": "address"
        },
        {
          "internalType": "uint256",
          "name": "tokenAmount",
          "type": "uint256"
        },
        {
          "internalType": "uint256",
          "name": "unlockTime",
          "type": "uint256"
        }
      ],
      "stateMutability": "nonpayable",
      "type": "constructor"
    },
    {
      "anonymous": false,
      "inputs": [
        {
          "indexed": true,
          "internalType": "address",
          "name": "sender",
          "type": "address"
        },
        {
          "indexed": true,
          "internalType": "address",
          "name": "receiver",
          "type": "address"
        },
        {
          "indexed": false,
          "internalType": "uint256",
          "name": "amount",
          "type": "uint256"
        },
        {
          "indexed": false,
          "internalType": "uint256",
          "name": "unlockTime",
          "type": "uint256"
        }
      ],
      "name": "PrincipalDeployed",
      "type": "event"
    },
    {
      "anonymous": false,
      "inputs": [
        {
          "indexed": true,
          "internalType": "address",
          "name": "sender",
          "type": "address"
        },
        {
          "indexed": false,
          "internalType": "uint256",
          "name": "amount",
          "type": "uint256"
        }
      ],
      "name": "PrincipalRefunded",
      "type": "event"
    },
    {
      "anonymous": false,
      "inputs": [
        {
          "indexed": true,
          "internalType": "address",
          "name": "receiver",
          "type": "address"
        },
        {
          "indexed": false,
          "internalType": "uint256",
          "name": "amount",
          "type": "uint256"
        }
      ],
      "name": "PrincipalWithdrawn",
      "type": "event"
    },
    {
      "stateMutability": "payable",
      "type": "fallback"
    },
    {
      "inputs": [],
      "name": "refund",
      "outputs": [
        {
          "internalType": "bool",
          "name": "",
          "type": "bool"
        }
      ],
      "stateMutability": "payable",
      "type": "function"
    },
    {
      "inputs": [],
      "name": "withdraw",
      "outputs": [
        {
          "internalType": "bool",
          "name": "",
          "type": "bool"
        }
      ],
      "stateMutability": "payable",
      "type": "function"
    },
    {
      "stateMutability": "payable",
      "type": "receive"
    }
  ],
  "bytecode": "0x60806040526000600560006101000a81548160ff0219169083151502179055506000600560016101000a81548160ff0219169083151502179055503480156200004757600080fd5b5060405162000fd038038062000fd083398181016040528101906200006d91906200035c565b8160008111620000b4576040517f08c379a0000000000000000000000000000000000000000000000000000000008152600401620000ab906200046b565b60405180910390fd5b81620000cd4260b46200029f60201b620005651760201c565b811162000111576040517f08c379a0000000000000000000000000000000000000000000000000000000008152600401620001089062000503565b60405180910390fd5b866000806101000a81548173ffffffffffffffffffffffffffffffffffffffff021916908373ffffffffffffffffffffffffffffffffffffffff16021790555085600160006101000a81548173ffffffffffffffffffffffffffffffffffffffff021916908373ffffffffffffffffffffffffffffffffffffffff16021790555084600260006101000a81548173ffffffffffffffffffffffffffffffffffffffff021916908373ffffffffffffffffffffffffffffffffffffffff1602179055508360038190555082600481905550600260009054906101000a900473ffffffffffffffffffffffffffffffffffffffff1673ffffffffffffffffffffffffffffffffffffffff16600160009054906101000a900473ffffffffffffffffffffffffffffffffffffffff1673ffffffffffffffffffffffffffffffffffffffff167f0de1f8074a7a45d3de4f44d34e1f98281a3e5b6247a898c9cddc309674a2a2cb6003546004546040516200028a92919062000536565b60405180910390a350505050505050620005ef565b60008183620002af919062000592565b905092915050565b600080fd5b600073ffffffffffffffffffffffffffffffffffffffff82169050919050565b6000620002e982620002bc565b9050919050565b620002fb81620002dc565b81146200030757600080fd5b50565b6000815190506200031b81620002f0565b92915050565b6000819050919050565b620003368162000321565b81146200034257600080fd5b50565b60008151905062000356816200032b565b92915050565b600080600080600060a086880312156200037b576200037a620002b7565b5b60006200038b888289016200030a565b95505060206200039e888289016200030a565b9450506040620003b1888289016200030a565b9350506060620003c48882890162000345565b9250506080620003d78882890162000345565b9150509295509295909350565b600082825260208201905092915050565b7f546f6b656e3a2053656e64206120706f73697469766520616d6f756e74206f6660008201527f20746f6b656e0000000000000000000000000000000000000000000000000000602082015250565b600062000453602683620003e4565b91506200046082620003f5565b604082019050919050565b60006020820190508181036000830152620004868162000444565b9050919050565b7f54696d653a20556e6c6f636b2054696d65206d757374206265206174206c656160008201527f737420313830207365636f6e6473206c61746572000000000000000000000000602082015250565b6000620004eb603483620003e4565b9150620004f8826200048d565b604082019050919050565b600060208201905081810360008301526200051e81620004dc565b9050919050565b620005308162000321565b82525050565b60006040820190506200054d600083018562000525565b6200055c602083018462000525565b9392505050565b7f4e487b7100000000000000000000000000000000000000000000000000000000600052601160045260246000fd5b60006200059f8262000321565b9150620005ac8362000321565b9250827fffffffffffffffffffffffffffffffffffffffffffffffffffffffffffffffff03821115620005e457620005e362000563565b5b828201905092915050565b6109d180620005ff6000396000f3fe60806040526004361061002d5760003560e01c80633ccfd60b14610036578063590e1ae31461005457610034565b3661003457005b005b61003e610072565b60405161004b9190610596565b60405180910390f35b61005c61029e565b6040516100699190610596565b60405180910390f35b60003373ffffffffffffffffffffffffffffffffffffffff16600260009054906101000a900473ffffffffffffffffffffffffffffffffffffffff1673ffffffffffffffffffffffffffffffffffffffff1614610104576040517f08c379a00000000000000000000000000000000000000000000000000000000081526004016100fb90610634565b60405180910390fd5b60001515600560009054906101000a900460ff1615151461015a576040517f08c379a0000000000000000000000000000000000000000000000000000000008152600401610151906106a0565b60405180910390fd5b42600454101561019f576040517f08c379a000000000000000000000000000000000000000000000000000000000815260040161019690610732565b60405180910390fd5b6001600560006101000a81548160ff021916908315150217905550600260009054906101000a900473ffffffffffffffffffffffffffffffffffffffff1673ffffffffffffffffffffffffffffffffffffffff166108fc6003549081150290604051600060405180830381858888f19350505050158015610224573d6000803e3d6000fd5b50600260009054906101000a900473ffffffffffffffffffffffffffffffffffffffff1673ffffffffffffffffffffffffffffffffffffffff167f6a0d6da0beb3b4dc509c4559b55ca29b5f90af6d351a3f9365bb5ab6b572c96060035460405161028f919061076b565b60405180910390a26001905090565b60003373ffffffffffffffffffffffffffffffffffffffff16600160009054906101000a900473ffffffffffffffffffffffffffffffffffffffff1673ffffffffffffffffffffffffffffffffffffffff1614610330576040517f08c379a0000000000000000000000000000000000000000000000000000000008152600401610327906107f8565b60405180910390fd5b60001515600560019054906101000a900460ff16151514610386576040517f08c379a000000000000000000000000000000000000000000000000000000000815260040161037d90610864565b60405180910390fd5b60001515600560009054906101000a900460ff161515146103dc576040517f08c379a00000000000000000000000000000000000000000000000000000000081526004016103d3906108f6565b60405180910390fd5b42600454106104665760008054906101000a900473ffffffffffffffffffffffffffffffffffffffff1673ffffffffffffffffffffffffffffffffffffffff16639c5a416a6040518163ffffffff1660e01b8152600401600060405180830381600087803b15801561044d57600080fd5b505af1158015610461573d6000803e3d6000fd5b505050505b6001600560016101000a81548160ff021916908315150217905550600160009054906101000a900473ffffffffffffffffffffffffffffffffffffffff1673ffffffffffffffffffffffffffffffffffffffff166108fc6003549081150290604051600060405180830381858888f193505050501580156104eb573d6000803e3d6000fd5b50600160009054906101000a900473ffffffffffffffffffffffffffffffffffffffff1673ffffffffffffffffffffffffffffffffffffffff167fecc88f8ff3d5d68ef9e8a892f48408080ab947617b2256affbba9ae80898a833600354604051610556919061076b565b60405180910390a26001905090565b600081836105739190610945565b905092915050565b60008115159050919050565b6105908161057b565b82525050565b60006020820190506105ab6000830184610587565b92915050565b600082825260208201905092915050565b7f5769746864726177616c3a204e6f742053746970756c6174656420526563656960008201527f7665720000000000000000000000000000000000000000000000000000000000602082015250565b600061061e6023836105b1565b9150610629826105c2565b604082019050919050565b6000602082019050818103600083015261064d81610611565b9050919050565b7f5769746864726177616c3a20416c72656164792057697468647261776e000000600082015250565b600061068a601d836105b1565b915061069582610654565b602082019050919050565b600060208201905081810360008301526106b98161067d565b9050919050565b7f5769746864726177616c3a20556e6c6f636b2054696d652068617320456c617060008201527f7365640000000000000000000000000000000000000000000000000000000000602082015250565b600061071c6023836105b1565b9150610727826106c0565b604082019050919050565b6000602082019050818103600083015261074b8161070f565b9050919050565b6000819050919050565b61076581610752565b82525050565b6000602082019050610780600083018461075c565b92915050565b7f526566756e643a204e6f742053656e6465722c20706c6561736520757365207460008201527f686520636f7272656374206163636f756e740000000000000000000000000000602082015250565b60006107e26032836105b1565b91506107ed82610786565b604082019050919050565b60006020820190508181036000830152610811816107d5565b9050919050565b7f526566756e643a20416c726561647920526566756e6465640000000000000000600082015250565b600061084e6018836105b1565b915061085982610818565b602082019050919050565b6000602082019050818103600083015261087d81610841565b9050919050565b7f526566756e643a20596f75206d6179206e6f7420726566756e6420617320612060008201527f7769746864726177616c20686173206265656e2070726f636573736564000000602082015250565b60006108e0603d836105b1565b91506108eb82610884565b604082019050919050565b6000602082019050818103600083015261090f816108d3565b9050919050565b7f4e487b7100000000000000000000000000000000000000000000000000000000600052601160045260246000fd5b600061095082610752565b915061095b83610752565b9250827fffffffffffffffffffffffffffffffffffffffffffffffffffffffffffffffff038211156109905761098f610916565b5b82820190509291505056fea26469706673582212206d2963aaa72f73ca6f411bfa9dc8815fb61ce6da00618bfd033ca8b77a0f1cf264736f6c63430008090033",
  "linkReferences": {},
  "deployedLinkReferences": {}
}