{
  "_format": "hh-sol-artifact-1",
  "contractName": "PrincipalLockToken",
  "sourceName": "contracts/PrincipalLockToken.sol",
  "abi": [
    {
      "inputs": [
        {
          "internalType": "address",
          "name": "gLockAddress",
          "type": "address"
        },
        {
          "internalType": "address",
          "name": "tokenAddress",
          "type": "address"
        },
        {
          "internalType": "address",
          "name": "sender",
          "type": "address"
        },
        {
          "internalType": "address",
          "name": "receiver",
          "type": "address"
        },
        {
          "internalType": "uint256",
          "name": "tokenAmount",
          "type": "uint256"
        },
        {
          "internalType": "uint256",
          "name": "unlockTime",
          "type": "uint256"
        }
      ],
      "stateMutability": "nonpayable",
      "type": "constructor"
    },
    {
      "anonymous": false,
      "inputs": [
        {
          "indexed": true,
          "internalType": "address",
          "name": "tokenAddress",
          "type": "address"
        },
        {
          "indexed": true,
          "internalType": "address",
          "name": "sender",
          "type": "address"
        },
        {
          "indexed": true,
          "internalType": "address",
          "name": "receiver",
          "type": "address"
        },
        {
          "indexed": false,
          "internalType": "uint256",
          "name": "amount",
          "type": "uint256"
        },
        {
          "indexed": false,
          "internalType": "uint256",
          "name": "unlockTime",
          "type": "uint256"
        }
      ],
      "name": "PrincipalTokensLocked",
      "type": "event"
    },
    {
      "anonymous": false,
      "inputs": [
        {
          "indexed": true,
          "internalType": "address",
          "name": "tokenAddress",
          "type": "address"
        },
        {
          "indexed": true,
          "internalType": "address",
          "name": "sender",
          "type": "address"
        },
        {
          "indexed": false,
          "internalType": "uint256",
          "name": "amount",
          "type": "uint256"
        }
      ],
      "name": "PrincipalTokensRefunded",
      "type": "event"
    },
    {
      "anonymous": false,
      "inputs": [
        {
          "indexed": true,
          "internalType": "address",
          "name": "tokenAddress",
          "type": "address"
        },
        {
          "indexed": true,
          "internalType": "address",
          "name": "receiver",
          "type": "address"
        },
        {
          "indexed": false,
          "internalType": "uint256",
          "name": "amount",
          "type": "uint256"
        }
      ],
      "name": "PrincipalTokensWithdrawn",
      "type": "event"
    },
    {
      "inputs": [],
      "name": "refund",
      "outputs": [
        {
          "internalType": "bool",
          "name": "",
          "type": "bool"
        }
      ],
      "stateMutability": "nonpayable",
      "type": "function"
    },
    {
      "inputs": [],
      "name": "withdraw",
      "outputs": [
        {
          "internalType": "bool",
          "name": "",
          "type": "bool"
        }
      ],
      "stateMutability": "nonpayable",
      "type": "function"
    }
  ],
  "bytecode": "0x60806040526000600660006101000a81548160ff0219169083151502179055506000600660016101000a81548160ff0219169083151502179055503480156200004757600080fd5b50604051620012683803806200126883398181016040528101906200006d9190620003d5565b8160008111620000b4576040517f08c379a0000000000000000000000000000000000000000000000000000000008152600401620000ab90620004f8565b60405180910390fd5b81620000cd4260b46200031860201b620006a81760201c565b811162000111576040517f08c379a0000000000000000000000000000000000000000000000000000000008152600401620001089062000590565b60405180910390fd5b87600160006101000a81548173ffffffffffffffffffffffffffffffffffffffff021916908373ffffffffffffffffffffffffffffffffffffffff160217905550866000806101000a81548173ffffffffffffffffffffffffffffffffffffffff021916908373ffffffffffffffffffffffffffffffffffffffff16021790555085600260006101000a81548173ffffffffffffffffffffffffffffffffffffffff021916908373ffffffffffffffffffffffffffffffffffffffff16021790555084600360006101000a81548173ffffffffffffffffffffffffffffffffffffffff021916908373ffffffffffffffffffffffffffffffffffffffff1602179055508360048190555082600581905550600360009054906101000a900473ffffffffffffffffffffffffffffffffffffffff1673ffffffffffffffffffffffffffffffffffffffff16600260009054906101000a900473ffffffffffffffffffffffffffffffffffffffff1673ffffffffffffffffffffffffffffffffffffffff1660008054906101000a900473ffffffffffffffffffffffffffffffffffffffff1673ffffffffffffffffffffffffffffffffffffffff167fcbe74ffadad9b1f0d6acfb8ee55292024a4a40ddf127459af5a6e76379c35eea60045460055460405162000302929190620005c3565b60405180910390a450505050505050506200067c565b600081836200032891906200061f565b905092915050565b600080fd5b600073ffffffffffffffffffffffffffffffffffffffff82169050919050565b6000620003628262000335565b9050919050565b620003748162000355565b81146200038057600080fd5b50565b600081519050620003948162000369565b92915050565b6000819050919050565b620003af816200039a565b8114620003bb57600080fd5b50565b600081519050620003cf81620003a4565b92915050565b60008060008060008060c08789031215620003f557620003f462000330565b5b60006200040589828a0162000383565b96505060206200041889828a0162000383565b95505060406200042b89828a0162000383565b94505060606200043e89828a0162000383565b93505060806200045189828a01620003be565b92505060a06200046489828a01620003be565b9150509295509295509295565b600082825260208201905092915050565b7f546f6b656e3a2053656e64206120706f73697469766520616d6f756e74206f6660008201527f20746f6b656e0000000000000000000000000000000000000000000000000000602082015250565b6000620004e060268362000471565b9150620004ed8262000482565b604082019050919050565b600060208201905081810360008301526200051381620004d1565b9050919050565b7f54696d653a20556e6c6f636b2054696d65206d757374206265206174206c656160008201527f737420313830207365636f6e6473206c61746572000000000000000000000000602082015250565b60006200057860348362000471565b915062000585826200051a565b604082019050919050565b60006020820190508181036000830152620005ab8162000569565b9050919050565b620005bd816200039a565b82525050565b6000604082019050620005da6000830185620005b2565b620005e96020830184620005b2565b9392505050565b7f4e487b7100000000000000000000000000000000000000000000000000000000600052601160045260246000fd5b60006200062c826200039a565b915062000639836200039a565b9250827fffffffffffffffffffffffffffffffffffffffffffffffffffffffffffffffff03821115620006715762000670620005f0565b5b828201905092915050565b610bdc806200068c6000396000f3fe608060405234801561001057600080fd5b50600436106100365760003560e01c80633ccfd60b1461003b578063590e1ae314610059575b600080fd5b610043610077565b60405161005091906106d9565b60405180910390f35b610061610341565b60405161006e91906106d9565b60405180910390f35b60003373ffffffffffffffffffffffffffffffffffffffff16600360009054906101000a900473ffffffffffffffffffffffffffffffffffffffff1673ffffffffffffffffffffffffffffffffffffffff1614610109576040517f08c379a000000000000000000000000000000000000000000000000000000000815260040161010090610777565b60405180910390fd5b60001515600660009054906101000a900460ff1615151461015f576040517f08c379a0000000000000000000000000000000000000000000000000000000008152600401610156906107e3565b60405180910390fd5b4260055410156101a4576040517f08c379a000000000000000000000000000000000000000000000000000000000815260040161019b90610875565b60405180910390fd5b6001600660006101000a81548160ff02191690831515021790555060008054906101000a900473ffffffffffffffffffffffffffffffffffffffff1673ffffffffffffffffffffffffffffffffffffffff1663a9059cbb600360009054906101000a900473ffffffffffffffffffffffffffffffffffffffff166004546040518363ffffffff1660e01b815260040161023e9291906108ef565b602060405180830381600087803b15801561025857600080fd5b505af115801561026c573d6000803e3d6000fd5b505050506040513d601f19601f820116820180604052508101906102909190610949565b50600360009054906101000a900473ffffffffffffffffffffffffffffffffffffffff1673ffffffffffffffffffffffffffffffffffffffff1660008054906101000a900473ffffffffffffffffffffffffffffffffffffffff1673ffffffffffffffffffffffffffffffffffffffff167f0aec97f44d6c5b0b42b2fd72f7e120964fe58696aba1bae63a67a416b57fb9866004546040516103329190610976565b60405180910390a36001905090565b60003373ffffffffffffffffffffffffffffffffffffffff16600260009054906101000a900473ffffffffffffffffffffffffffffffffffffffff1673ffffffffffffffffffffffffffffffffffffffff16146103d3576040517f08c379a00000000000000000000000000000000000000000000000000000000081526004016103ca90610a03565b60405180910390fd5b60001515600660019054906101000a900460ff16151514610429576040517f08c379a000000000000000000000000000000000000000000000000000000000815260040161042090610a6f565b60405180910390fd5b60001515600660009054906101000a900460ff1615151461047f576040517f08c379a000000000000000000000000000000000000000000000000000000000815260040161047690610b01565b60405180910390fd5b426005541061050b57600160009054906101000a900473ffffffffffffffffffffffffffffffffffffffff1673ffffffffffffffffffffffffffffffffffffffff16639c5a416a6040518163ffffffff1660e01b8152600401600060405180830381600087803b1580156104f257600080fd5b505af1158015610506573d6000803e3d6000fd5b505050505b6001600660016101000a81548160ff02191690831515021790555060008054906101000a900473ffffffffffffffffffffffffffffffffffffffff1673ffffffffffffffffffffffffffffffffffffffff1663a9059cbb600260009054906101000a900473ffffffffffffffffffffffffffffffffffffffff166004546040518363ffffffff1660e01b81526004016105a59291906108ef565b602060405180830381600087803b1580156105bf57600080fd5b505af11580156105d3573d6000803e3d6000fd5b505050506040513d601f19601f820116820180604052508101906105f79190610949565b50600260009054906101000a900473ffffffffffffffffffffffffffffffffffffffff1673ffffffffffffffffffffffffffffffffffffffff1660008054906101000a900473ffffffffffffffffffffffffffffffffffffffff1673ffffffffffffffffffffffffffffffffffffffff167f319821f55972a58a875755d451f1caf9294b1c80db62ab15c34f3ab0002296596004546040516106999190610976565b60405180910390a36001905090565b600081836106b69190610b50565b905092915050565b60008115159050919050565b6106d3816106be565b82525050565b60006020820190506106ee60008301846106ca565b92915050565b600082825260208201905092915050565b7f5769746864726177616c3a204e6f742053746970756c6174656420526563656960008201527f7665720000000000000000000000000000000000000000000000000000000000602082015250565b60006107616023836106f4565b915061076c82610705565b604082019050919050565b6000602082019050818103600083015261079081610754565b9050919050565b7f5769746864726177616c3a20416c72656164792057697468647261776e000000600082015250565b60006107cd601d836106f4565b91506107d882610797565b602082019050919050565b600060208201905081810360008301526107fc816107c0565b9050919050565b7f5769746864726177616c3a20556e6c6f636b2054696d652068617320456c617060008201527f7365640000000000000000000000000000000000000000000000000000000000602082015250565b600061085f6023836106f4565b915061086a82610803565b604082019050919050565b6000602082019050818103600083015261088e81610852565b9050919050565b600073ffffffffffffffffffffffffffffffffffffffff82169050919050565b60006108c082610895565b9050919050565b6108d0816108b5565b82525050565b6000819050919050565b6108e9816108d6565b82525050565b600060408201905061090460008301856108c7565b61091160208301846108e0565b9392505050565b600080fd5b610926816106be565b811461093157600080fd5b50565b6000815190506109438161091d565b92915050565b60006020828403121561095f5761095e610918565b5b600061096d84828501610934565b91505092915050565b600060208201905061098b60008301846108e0565b92915050565b7f526566756e643a204e6f742053656e6465722c20706c6561736520757365207460008201527f686520636f7272656374206163636f756e740000000000000000000000000000602082015250565b60006109ed6032836106f4565b91506109f882610991565b604082019050919050565b60006020820190508181036000830152610a1c816109e0565b9050919050565b7f526566756e643a20416c726561647920526566756e6465640000000000000000600082015250565b6000610a596018836106f4565b9150610a6482610a23565b602082019050919050565b60006020820190508181036000830152610a8881610a4c565b9050919050565b7f526566756e643a20596f75206d6179206e6f7420726566756e6420617320612060008201527f7769746864726177616c20686173206265656e2070726f636573736564000000602082015250565b6000610aeb603d836106f4565b9150610af682610a8f565b604082019050919050565b60006020820190508181036000830152610b1a81610ade565b9050919050565b7f4e487b7100000000000000000000000000000000000000000000000000000000600052601160045260246000fd5b6000610b5b826108d6565b9150610b66836108d6565b9250827fffffffffffffffffffffffffffffffffffffffffffffffffffffffffffffffff03821115610b9b57610b9a610b21565b5b82820190509291505056fea26469706673582212201ff30e27753ccf1d85749f7e61df481fcefdf6699be13956654e0a4f0bcdd1ba64736f6c63430008090033",
  "linkReferences": {},
  "deployedLinkReferences": {}
}